{
  "contractName": "DecentralBank",
  "abi": [
    {
      "inputs": [
        {
          "internalType": "contract RewardToken",
          "name": "_rewardToken",
          "type": "address"
        },
        {
          "internalType": "contract Tether",
          "name": "_tether",
          "type": "address"
        }
      ],
      "stateMutability": "nonpayable",
      "type": "constructor"
    },
    {
      "inputs": [],
      "name": "_RewardToken",
      "outputs": [
        {
          "internalType": "contract RewardToken",
          "name": "",
          "type": "address"
        }
      ],
      "stateMutability": "view",
      "type": "function",
      "constant": true
    },
    {
      "inputs": [],
      "name": "_Tether",
      "outputs": [
        {
          "internalType": "contract Tether",
          "name": "",
          "type": "address"
        }
      ],
      "stateMutability": "view",
      "type": "function",
      "constant": true
    },
    {
      "inputs": [
        {
          "internalType": "address",
          "name": "",
          "type": "address"
        }
      ],
      "name": "_hasStaked",
      "outputs": [
        {
          "internalType": "bool",
          "name": "",
          "type": "bool"
        }
      ],
      "stateMutability": "view",
      "type": "function",
      "constant": true
    },
    {
      "inputs": [
        {
          "internalType": "address",
          "name": "",
          "type": "address"
        }
      ],
      "name": "_isStaking",
      "outputs": [
        {
          "internalType": "bool",
          "name": "",
          "type": "bool"
        }
      ],
      "stateMutability": "view",
      "type": "function",
      "constant": true
    },
    {
      "inputs": [],
      "name": "_name",
      "outputs": [
        {
          "internalType": "string",
          "name": "",
          "type": "string"
        }
      ],
      "stateMutability": "view",
      "type": "function",
      "constant": true
    },
    {
      "inputs": [],
      "name": "_owner",
      "outputs": [
        {
          "internalType": "address",
          "name": "",
          "type": "address"
        }
      ],
      "stateMutability": "view",
      "type": "function",
      "constant": true
    },
    {
      "inputs": [
        {
          "internalType": "uint256",
          "name": "",
          "type": "uint256"
        }
      ],
      "name": "_stakers",
      "outputs": [
        {
          "internalType": "address",
          "name": "",
          "type": "address"
        }
      ],
      "stateMutability": "view",
      "type": "function",
      "constant": true
    },
    {
      "inputs": [
        {
          "internalType": "address",
          "name": "",
          "type": "address"
        }
      ],
      "name": "_stakingBalance",
      "outputs": [
        {
          "internalType": "uint256",
          "name": "",
          "type": "uint256"
        }
      ],
      "stateMutability": "view",
      "type": "function",
      "constant": true
    },
    {
      "inputs": [
        {
          "internalType": "uint256",
          "name": "_stakingAmount",
          "type": "uint256"
        }
      ],
      "name": "_stakeTokens",
      "outputs": [],
      "stateMutability": "nonpayable",
      "type": "function"
    },
    {
      "inputs": [],
      "name": "_unstakeTokens",
      "outputs": [],
      "stateMutability": "nonpayable",
      "type": "function"
    },
    {
      "inputs": [],
      "name": "_issueRewardTokens",
      "outputs": [],
      "stateMutability": "nonpayable",
      "type": "function"
    }
  ],
  "bytecode": "0x60806040526040518060400160405280600e81526020017f446563656e7472616c2042616e6b0000000000000000000000000000000000008152506001908051906020019061004f929190610163565b5034801561005c57600080fd5b50604051610f9b380380610f9b8339818101604052604081101561007f57600080fd5b810190808051906020019092919080519060200190929190505050336000806101000a81548173ffffffffffffffffffffffffffffffffffffffff021916908373ffffffffffffffffffffffffffffffffffffffff16021790555080600260006101000a81548173ffffffffffffffffffffffffffffffffffffffff021916908373ffffffffffffffffffffffffffffffffffffffff16021790555081600360006101000a81548173ffffffffffffffffffffffffffffffffffffffff021916908373ffffffffffffffffffffffffffffffffffffffff160217905550505061020e565b828054600181600116156101000203166002900490600052602060002090601f01602090048101928261019957600085556101e0565b82601f106101b257805160ff19168380011785556101e0565b828001600101855582156101e0579182015b828111156101df5782518255916020019190600101906101c4565b5b5090506101ed91906101f1565b5090565b5b8082111561020a5760008160009055506001016101f2565b5090565b610d7e8061021d6000396000f3fe608060405234801561001057600080fd5b50600436106100a95760003560e01c80635bd371a2116100715780635bd371a2146101cc578063804110dc1461020057806390a120c91461025a578063b2bdfa7b146102b2578063c1e0f062146102e6578063d28d8852146102f0576100a9565b80632669ca1f146100ae5780633e556494146100b8578063486c3027146101105780634a1bc230146101445780634bae05b71461019e575b600080fd5b6100b6610373565b005b6100e4600480360360208110156100ce57600080fd5b810190808035906020019092919050505061059c565b604051808273ffffffffffffffffffffffffffffffffffffffff16815260200191505060405180910390f35b6101186105db565b604051808273ffffffffffffffffffffffffffffffffffffffff16815260200191505060405180910390f35b6101866004803603602081101561015a57600080fd5b81019080803573ffffffffffffffffffffffffffffffffffffffff169060200190929190505050610601565b60405180821515815260200191505060405180910390f35b6101ca600480360360208110156101b457600080fd5b8101908080359060200190929190505050610621565b005b6101d4610971565b604051808273ffffffffffffffffffffffffffffffffffffffff16815260200191505060405180910390f35b6102426004803603602081101561021657600080fd5b81019080803573ffffffffffffffffffffffffffffffffffffffff169060200190929190505050610997565b60405180821515815260200191505060405180910390f35b61029c6004803603602081101561027057600080fd5b81019080803573ffffffffffffffffffffffffffffffffffffffff1690602001909291905050506109b7565b6040518082815260200191505060405180910390f35b6102ba6109cf565b604051808273ffffffffffffffffffffffffffffffffffffffff16815260200191505060405180910390f35b6102ee6109f3565b005b6102f8610c88565b6040518080602001828103825283818151815260200191508051906020019080838360005b8381101561033857808201518184015260208101905061031d565b50505050905090810190601f1680156103655780820380516001836020036101000a031916815260200191505b509250505060405180910390f35b6000600560003373ffffffffffffffffffffffffffffffffffffffff1673ffffffffffffffffffffffffffffffffffffffff1681526020019081526020016000205490506000811161042d576040517f08c379a00000000000000000000000000000000000000000000000000000000081526004018080602001828103825260168152602001807f43616e6e6f7420756e7374616b65203020746f6b656e0000000000000000000081525060200191505060405180910390fd5b600260009054906101000a900473ffffffffffffffffffffffffffffffffffffffff1673ffffffffffffffffffffffffffffffffffffffff16634847a79c33836040518363ffffffff1660e01b8152600401808373ffffffffffffffffffffffffffffffffffffffff16815260200182815260200192505050602060405180830381600087803b1580156104c057600080fd5b505af11580156104d4573d6000803e3d6000fd5b505050506040513d60208110156104ea57600080fd5b8101908080519060200190929190505050506000600560003373ffffffffffffffffffffffffffffffffffffffff1673ffffffffffffffffffffffffffffffffffffffff168152602001908152602001600020819055506000600760003373ffffffffffffffffffffffffffffffffffffffff1673ffffffffffffffffffffffffffffffffffffffff16815260200190815260200160002060006101000a81548160ff02191690831515021790555050565b600481815481106105ac57600080fd5b906000526020600020016000915054906101000a900473ffffffffffffffffffffffffffffffffffffffff1681565b600260009054906101000a900473ffffffffffffffffffffffffffffffffffffffff1681565b60076020528060005260406000206000915054906101000a900460ff1681565b60008111610697576040517f08c379a00000000000000000000000000000000000000000000000000000000081526004018080602001828103825260148152602001807f43616e6e6f74207374616b65203020746f6b656e00000000000000000000000081525060200191505060405180910390fd5b600260009054906101000a900473ffffffffffffffffffffffffffffffffffffffff1673ffffffffffffffffffffffffffffffffffffffff1663f2de95643330846040518463ffffffff1660e01b8152600401808473ffffffffffffffffffffffffffffffffffffffff1681526020018373ffffffffffffffffffffffffffffffffffffffff1681526020018281526020019350505050602060405180830381600087803b15801561074857600080fd5b505af115801561075c573d6000803e3d6000fd5b505050506040513d602081101561077257600080fd5b81019080805190602001909291905050505080600560003373ffffffffffffffffffffffffffffffffffffffff1673ffffffffffffffffffffffffffffffffffffffff1681526020019081526020016000205401600560003373ffffffffffffffffffffffffffffffffffffffff1673ffffffffffffffffffffffffffffffffffffffff16815260200190815260200160002081905550600660003373ffffffffffffffffffffffffffffffffffffffff1673ffffffffffffffffffffffffffffffffffffffff16815260200190815260200160002060009054906101000a900460ff166108be576004339080600181540180825580915050600190039060005260206000200160009091909190916101000a81548173ffffffffffffffffffffffffffffffffffffffff021916908373ffffffffffffffffffffffffffffffffffffffff1602179055505b6001600760003373ffffffffffffffffffffffffffffffffffffffff1673ffffffffffffffffffffffffffffffffffffffff16815260200190815260200160002060006101000a81548160ff0219169083151502179055506001600660003373ffffffffffffffffffffffffffffffffffffffff1673ffffffffffffffffffffffffffffffffffffffff16815260200190815260200160002060006101000a81548160ff02191690831515021790555050565b600360009054906101000a900473ffffffffffffffffffffffffffffffffffffffff1681565b60066020528060005260406000206000915054906101000a900460ff1681565b60056020528060005260406000206000915090505481565b60008054906101000a900473ffffffffffffffffffffffffffffffffffffffff1681565b60008054906101000a900473ffffffffffffffffffffffffffffffffffffffff1673ffffffffffffffffffffffffffffffffffffffff163373ffffffffffffffffffffffffffffffffffffffff1614610a97576040517f08c379a0000000000000000000000000000000000000000000000000000000008152600401808060200182810382526022815260200180610d276022913960400191505060405180910390fd5b60005b600480549050811015610c8557600060048281548110610ab657fe5b9060005260206000200160009054906101000a900473ffffffffffffffffffffffffffffffffffffffff16905060006009600560008473ffffffffffffffffffffffffffffffffffffffff1673ffffffffffffffffffffffffffffffffffffffff1681526020019081526020016000205481610b2e57fe5b04905060008111610ba7576040517f08c379a00000000000000000000000000000000000000000000000000000000081526004018080602001828103825260188152602001807f52657761726420546f6b656e2063616e6e6f742062652030000000000000000081525060200191505060405180910390fd5b600360009054906101000a900473ffffffffffffffffffffffffffffffffffffffff1673ffffffffffffffffffffffffffffffffffffffff16634847a79c83836040518363ffffffff1660e01b8152600401808373ffffffffffffffffffffffffffffffffffffffff16815260200182815260200192505050602060405180830381600087803b158015610c3a57600080fd5b505af1158015610c4e573d6000803e3d6000fd5b505050506040513d6020811015610c6457600080fd5b81019080805190602001909291905050505050508080600101915050610a9a565b50565b60018054600181600116156101000203166002900480601f016020809104026020016040519081016040528092919081815260200182805460018160011615610100020316600290048015610d1e5780601f10610cf357610100808354040283529160200191610d1e565b820191906000526020600020905b815481529060010190602001808311610d0157829003601f168201915b50505050508156fe4f6e6c79206f776e65722063616e2069737375652072657761726420746f6b656e73a2646970667358221220e037303a8e79789632b1974b93a0058ffe2a1f1169459ce97b1fa98f78b819d664736f6c63430007060033",
  "immutableReferences": {},
  "source": "// SPDX-License-Identifier: MIT\npragma solidity >=0.5.0 <0.9.0;\nimport './RewardToken.sol';\nimport './Tether.sol';\n\ncontract DecentralBank {\n\n    address public _owner;                                                               // Intialize owner\n    string public _name = 'Decentral Bank';                                              // Name of the bank\n    Tether public _Tether;                                                               // Local variable to store Tether contract address as a Tether datatype\n    RewardToken public _RewardToken;                                                     // Local variable to store RewardToken contract address as a RewardToken datatype\n\n    //address of account staking\n    address[] public _stakers;\n\n    mapping(address => uint256) public _stakingBalance;                                  // Stores staking balance of respected accounts\n    mapping(address => bool) public _hasStaked;                                          // Stores true for the respected accounts if the account has staked previously, false otherwise\n    mapping(address => bool) public _isStaking;                                          // Stores true for the respected accounts if the account is currently staking, false otherwise\n\n    // Initialize an instance of the DecentralBank contract.\n    // While passing the contract address of Tether and RewardToken\n    constructor(RewardToken _rewardToken, Tether _tether) {\n        _owner = msg.sender;                                                             // Intialize the msg.sender as the owner\n        _Tether = _tether;                                                               // Intialize the Tether contract address to local variable\n        _RewardToken = _rewardToken;                                                     // Intialize the RewardToken contract address to local variable\n    }\n\n    // Function to stake tokens\n    function _stakeTokens(uint256 _stakingAmount) public {\n\n        // require staking amount to be greater than zero\n        require(_stakingAmount > 0, 'Cannot stake 0 token');                            \n \n        // Transfer tether tokens to this contract address for staking\n        _Tether._thirdPartyTransfer(msg.sender, address(this), _stakingAmount);    \n\n        _stakingBalance[msg.sender] = _stakingBalance[msg.sender] + _stakingAmount;     // Updates staking balance\n\n        // Checks if the user account has previously staked or not     \n        if(! _hasStaked[msg.sender]) {\n            _stakers.push(msg.sender);                                                   // If the user has not staked then add him to the list of stakers\n        }\n\n        _isStaking[msg.sender] = true;                                                   // Set true for user isStaking\n        _hasStaked[msg.sender] = true;                                                   // Set true for user hasStaked\n        \n    }\n\n    // Function to unstake tokens\n    function _unstakeTokens() public {\n\n        uint256 _balance = _stakingBalance[msg.sender];                                  // Stores the token amount of user account to _balance\n        require(_balance > 0, 'Cannot unstake 0 token');                                 // Token for unstaking cannot be 0\n        // Calls transfer function from Tether contract and\n        // Transfer the tokens to unstake\n        _Tether._transfer(msg.sender, _balance);                                        \n        _stakingBalance[msg.sender] = 0;                                                 // Set the staking balance of user to 0\n        _isStaking[msg.sender] = false;                                                  // Set false for user isStaking\n    }\n\n    // Function to issue reward tokens to the user account\n    function _issueRewardTokens() public {\n\n        // Only owner can issue reward tokens to the user account\n        require(msg.sender == _owner, 'Only owner can issue reward tokens');\n\n        for(uint256 i=0; i < _stakers.length; i++) {\n            address _recipient = _stakers[i];                                            // Access the stakers array and store each member to recipient one at a time\n            uint256 _rewardToken = _stakingBalance[_recipient] / 9;                      // Calculate the reward token\n            \n            require(_rewardToken > 0, 'Reward Token cannot be 0');                       // Reward Token cannot be 0 when issue\n            _RewardToken._transfer(_recipient, _rewardToken);                            // Calls transfer function from RewardToken contract and\n        }                                                                                // Issue reward tokens to the recipient\n    } \n}\n",
  "sourcePath": "C:\\Users\\yashw\\Downloads\\Programe\\Blockchain Devlopment\\2. DAPP Bank\\src\\contracts\\DecentralBank.sol",
  "compiler": {
    "name": "solc",
    "version": "0.7.6+commit.7338295f.Emscripten.clang"
  },
  "schemaVersion": "3.4.7",
  "updatedAt": "2022-06-27T04:20:12.206Z",
  "networkType": "ethereum",
  "devdoc": {
    "kind": "dev",
    "methods": {},
    "version": 1
  },
  "userdoc": {
    "kind": "user",
    "methods": {},
    "version": 1
  }
}